:0400000007EF00F016
:100008004B8273ED13F066EF1AF0DE0E926EFA0E65
:10001800936E590E946E000E956E000E966E000E3D
:10002800896E000E8A6E000E8B6E000E8C6E000EAE
:100038008D6E000EC26E0B0EC16E000EB56EB496BC
:10004800C08E81808184F19E100E426E270E436E11
:10005800000E446E000E456E1EEC17F0F086F28E10
:1000680012EC18F0000E366E300E356E000E376E3C
:10007800E3EC19F0000E366E310E356E000E376E59
:10008800E3EC19F0000E366E320E356E000E376E48
:10009800E3EC19F0000E366E330E356E000E376E37
:1000A800E3EC19F0000E366E200E356E000E376E3A
:1000B800E3EC19F0000E366E210E356E000E376E29
:1000C800E3EC19F0000E366E220E356E000E376E18
:1000D800E3EC19F0000E366E230E356E000E376E07
:1000E800E3EC19F0000E366E100E356E000E376E0A
:1000F800E3EC19F0000E366E110E356E000E376EF9
:10010800E3EC19F0000E366E120E356E000E376EE7
:10011800E3EC19F0000E366E130E356E000E376ED6
:10012800E3EC19F0000E366E000E356E000E376ED9
:10013800E3EC19F0000E366E010E356E000E376EC8
:10014800E3EC19F0000E366E020E356E000E376EB7
:10015800E3EC19F0000E366E030E356E000E376EA6
:10016800E3EC19F0A5EF07F0000E0101176F000E80
:10017800166F000E0101156F000E146F000E0101BD
:10018800136F000E126F000E0101116F000E106F39
:10019800000E01010F6F000E0E6F000E01010D6FB2
:1001A800000E0C6F93EC1AF0800ECEEC1AF008D00B
:1001B8002A0E0001FE6F010E0001FF6FEAEC13F03A
:1001C80081380F0B0F0B0101476F486B430E01017C
:1001D8004725F66EFD0E4821F76E0800F550300AE7
:1001E800D8A4E6D7CFEC19F018D393EC1AF0780E10
:1001F8000101436FFF0E0101446F230E0101456F9A
:10020800FF0E0101466FBBEC18F0FAEC1AF0CFECC8
:1002180019F02A0E01011B19D8A45DD0000E0101A6
:100228000B6F000E0A6F000E0101096F000E086FB8
:10023800000E0101076F000E066F000E0101056F29
:10024800000E046F000E0101036F000E026F050E11
:100258000101001901010111D8A406D0000E010105
:10026800016F010E006F03D00101004B012B93ECCD
:100278001AF0EF0E0101436FFF0E0101446F8A0E61
:100288000101456FFE0E0101466FBBEC18F0000E30
:10029800366E020E356E35EC18F093EC1AF0E60E59
:1002A8000101436FFD0E0101446FF90E0101456F15
:1002B800FD0E0101466FBBEC18F0230E386E010EDF
:1002C800396E7EEC16F01C0E386E010E396E7EEC1F
:1002D80016F0010EB0D1310E01011B19D8A4A5D119
:1002E800000E0101156F000E98D193EC1AF0560E0E
:1002F8000101436FFF0E0101446F120E0101456FAA
:10030800FF0E0101466FBBEC18F0FAEC1AF0CFECC7
:1003180019F0340E01011B19D8A44ED093EC1AF031
:10032800320E0001F66FFE0E0001F76F000E366EFA
:10033800300E356EABEC1AF00101476F01014751E1
:100348000001F86FF96B000E366E310E356EABECAE
:100358001AF00101486F010148510001FA6FFB6B67
:10036800B5EC07F0C00ECEEC1AF00C0E0001F66FDB
:10037800FE0E0001F76F000E366E320E356EABECD6
:100388001AF00101476F010147510001F86FF96B3D
:10039800000E366E330E356EABEC1AF00101486F65
:1003A800010148510001FA6FFB6BB5EC07F0FAEC5C
:1003B8001AF0CFEC19F032D1350E01011B19D8A46F
:1003C8004ED093EC1AF0320E0001F66FFE0E0001CB
:1003D800F76F000E366E200E356EABEC1AF0010189
:1003E800476F010147510001F86FF96B000E366E37
:1003F800210E356EABEC1AF00101486F010148512E
:100408000001FA6FFB6BB5EC07F0C00ECEEC1AF0EA
:100418000C0E0001F66FFE0E0001F76F000E366E2F
:10042800220E356EABEC1AF00101476F01014751FE
:100438000001F86FF96B000E366E230E356EABECCB
:100448001AF00101486F010148510001FA6FFB6B76
:10045800B5EC07F0FAEC1AF0CFEC19F0DFD0440E47
:1004680001011B19D8A4D0D0000E0101136F000E92
:10047800C3D093EC1AF0670E0101436FFF0E010120
:10048800446F450E0101456FFE0E0101466FBBEC3E
:1004980018F0FAEC1AF0CFEC19F0360E01011B191E
:1004A800D8A44ED093EC1AF0320E0001F66FFE0E6F
:1004B8000001F76F000E366E100E356EABEC1AF0B9
:1004C8000101476F010147510001F86FF96B000EF8
:1004D800366E110E356EABEC1AF00101486F010152
:1004E80048510001FA6FFB6BB5EC07F0C00ECEEC7B
:1004F8001AF00C0E0001F66FFE0E0001F76F000EE9
:10050800366E120E356EABEC1AF00101476F010121
:1005180047510001F86FF96B000E366E130E356EF9
:10052800ABEC1AF00101486F010148510001FA6F64
:10053800FB6BB5EC07F0FAEC1AF0CFEC19F05DD0D4
:10054800370E01011B19D8A44ED093EC1AF0320EC5
:100558000001F66FFE0E0001F76F000E366E000EFA
:10056800356EABEC1AF00101476F010147510001EC
:10057800F86FF96B000E366E010E356EABEC1AF0A3
:100588000101486F010148510001FA6FFB6BB5EC9E
:1005980007F0C00ECEEC1AF00C0E0001F66FFE0E3E
:1005A8000001F76F000E366E020E356EABEC1AF0D6
:1005B8000101476F010147510001F86FF96B000E07
:1005C800366E030E356EABEC1AF00101486F01016F
:1005D80048510001FA6FFB6BB5EC07F0FAEC1AF022
:1005E800CFEC19F00AD0430E01011B19D8A405D08D
:1005F800000E0101136F010E126F0101125101016A
:100608001311D8A40BD035D7430E01011B19D8A458
:1006180005D0000E0101156F010E146F0101145170
:1006280001011511D8A4F9D060D6430E01011B1998
:10063800D8A404D0000E0101186FC1D2440E0101E4
:100648001B19D8A4EAD0000E0101116F000EDED0EC
:1006580093EC1AF0890E0101436FFF0E0101446FFC
:10066800D20E0101456FFD0E0101466FBBEC18F07B
:10067800FAEC1AF0CFEC19F0320E01011B19D8A4CC
:1006880044D0000E01010F6F000E1DD093EC1AF03C
:10069800450E0101436FFF0E0101446F340E010145
:1006A800456FFF0E0101466FBBEC18F0FAEC1AF02B
:1006B800CFEC19F0430E01011B19D8A406D0000E87
:1006C80001010F6F010E0E6F19D0440E01011B19A5
:1006D800D8A414D093EC1AF0CE0E0101436FFE0E8D
:1006E8000101446FCD0E0101456FFF0E0101466FF8
:1006F800BBEC18F0FAEC1AF0CFEC19F001010E512E
:1007080001010F11D8A483D0C1D7330E01011B19E1
:10071800D8A473D0000E01010F6F000E1DD093EC0A
:100728001AF0AB0E0101436FFF0E0101446F010E79
:100738000101456FFF0E0101466FBBEC18F0FAECA2
:100748001AF0CFEC19F0430E01011B19D8A406D0FA
:10075800000E01010F6F010E0E6F48D0440E01010B
:100768001B19D8A443D0000E01010D6F000E37D01D
:1007780093EC1AF0BC0E0101436FFF0E0101446FA8
:10078800F00E0101456FFE0E0101466FBBEC18F03B
:10079800FAEC1AF0CFEC19F0440E01011B19D8A499
:1007A80015D093EC1AF0DE0E0101436FFF0E010124
:1007B800446F680E0101456FFE0E0101466FBBECE8
:1007C80018F0FAEC1AF0CFEC19F00AD0430E010138
:1007D8001B19D8A405D0000E01010D6F010E0C6F76
:1007E80001010C5101010D11D8B4C2D701010E51FC
:1007F80001010F11D8A40BD092D7430E01011B1988
:10080800D8A405D0000E0101116F010E106F01016F
:10081800105101011111D8B41BD701011651010162
:100828001711D8A4CCD1E1D401011805D8A404D05B
:1008380038EC19F0DBEC18F0030E54EC1AF017D072
:10084800030E54EC1AF0828E060E0101476F300E2B
:10085800E82EFED7472FFCD700F0829E2F0E01010D
:10086800476FBF0EE82EFED7472FFCD700D0C350E6
:10087800C4CF47F10101486B47C148F10101476BFB
:1008880001014727000E4823010148BF08D0010194
:100898004851D6E11A0E0101475DD8B0D1D7000EF4
:1008A8000101526F000E516F85D08190000E010139
:1008B8004A6F000E496F01014A511BE11F0E0101E9
:1008C800495DD8B016D08480300E0101476F870E7D
:1008D800E82EFED7472FFCD78490050E0101476FFD
:1008E800690EE82EFED7472FFCD70101494B4A2B4A
:1008F800E2D71F0E0101486F710E0101476F1E0EEE
:10090800E82EFED7472FFCD7482FFAD700F0010171
:10091800514B522B050E0101511901015211D8B446
:1009280082A00AD0FAEC18F0000E366E010E356E71
:1009380035EC18F038EC19F001010BBF3BD0010180
:100948000B5104E101010A05D8A034D0010109BF07
:1009580031D00101095104E101010805D8A02AD0CC
:10096800010107BF27D00101075104E10101060574
:10097800D8A020D0010105BF1DD00101055104E117
:1009880001010405D8A016D00A0E01015119010170
:100998005211D8A40FD01C0E386E010E396E7EECA1
:1009A80016F0020E0101186F000E0101526F000EC1
:1009B800516F06D082A004D001011805D8B475D7AC
:1009C80001011805D8B419EC19F0020E54EC1AF00C
:1009D80082AC02D0000E03D082BC03D0010E01010C
:1009E8001A6F01011A510101D8B480B804D0140E4D
:1009F800C36001D009D001011A05D8A407D080A886
:100A080003D0140EC36002D0020E01D0030E010100
:100A1800196F01011A05D8A40FD0020E0101191986
:100A2800D8A40AD001011805D8A406D0FAEC18F009
:100A38000101064B072BA9D001011A510101D8A4C5
:100A480034D0020E01011919D8A42FD001011805BC
:100A5800D8A42BD0000E01014C6F000E4B6F010182
:100A68004C511DE1050E01014B5DD8B018D0828EA6
:100A7800060E0101476FF80EE82EFED7472FFCD768
:100A880000F0829E2E0E0101476FF80EE82EFED769
:100A9800472FFCD700F001014B4B4C2BE0D7FAEC69
:100AA80018F001010A4B0B2B70D001011A510101FA
:100AB800D8A434D0030E01011919D8A42FD00101EC
:100AC8001805D8A42BD0000E01014E6F000E4D6FF3
:100AD80001014E511DE10D0E01014D5DD8B018D038
:100AE800828E060E0101476FF80EE82EFED7472FBB
:100AF800FCD700F0829E2E0E0101476FF80EE82EFB
:100B0800FED7472FFCD700F001014D4B4E2BE0D705
:100B1800FAEC18F00101084B092B37D001011A052E
:100B2800D8A433D0030E01011919D8A42ED001017D
:100B38001805D8A42AD0000E0101506F000E4F6F7F
:100B4800010150511DE1150E01014F5DD8B018D0BB
:100B5800828E060E0101476FF80EE82EFED7472F4A
:100B6800FCD700F0829E2E0E0101476FF80EE82E8A
:100B7800FED7472FFCD700F001014F4B502BE0D791
:100B8800FAEC18F00101044B052B0101024B032B71
:100B98000A0E0101021901010311D8A40AD01C0E82
:100BA800386E010E396E7EEC16F0020E0101186FD8
:100BB8002ED01C0E386E010E396E7EEC16F0230E08
:100BC8000001DE6F010E0001DF6F1C0E0001E06FF7
:100BD800010E0001E16FD3EC0DF00001DFBF13D06F
:100BE8000001DF5105E1B40E0001DE5DD8A00BD095
:100BF800010103BF08D00101035109E10A0E0101F7
:100C0800025DD8B004D001011805D8B40DD6010191
:100C18001805D8B407D01C0E386E010E396E7EEC5C
:100C280016F08FD11C0E386E010E396E7EEC16F060
:100C3800020E1ED08180829EDBEC18F038EC19F091
:100C480093EC1AF0BD0E0101436FFE0E0101446FD3
:100C58009B0E0101456FFE0E0101466FBBEC18F0BB
:100C6800000E366E020E356E35EC18F08080030EDD
:100C78000101186F66D1000E0101176F000E166F83
:100C8800000E0101136F000E126F01010005010132
:100C98000111D8A421D0000E366E300E356E0AC16F
:100CA80037F0E3EC19F0000E366E310E356E08C1E0
:100CB80037F0E3EC19F0000E366E320E356E06C1D1
:100CC80037F0E3EC19F0000E366E330E356E04C1C2
:100CD80037F0E3EC19F02AD1020E010100190101E5
:100CE8000111D8A421D0000E366E200E356E0AC12F
:100CF80037F0E3EC19F0000E366E210E356E08C1A0
:100D080037F0E3EC19F0000E366E220E356E06C190
:100D180037F0E3EC19F0000E366E230E356E04C181
:100D280037F0E3EC19F002D1030E010100190101BB
:100D38000111D8A421D0000E366E100E356E0AC1EE
:100D480037F0E3EC19F0000E366E110E356E08C15F
:100D580037F0E3EC19F0000E366E120E356E06C150
:100D680037F0E3EC19F0000E366E130E356E04C141
:100D780037F0E3EC19F0DAD0040E01010019010193
:100D88000111D8A4D3D0000E366E000E356E0AC1FC
:100D980037F0E3EC19F0000E366E010E356E08C11F
:100DA80037F0E3EC19F0000E366E020E356E06C110
:100DB80037F0E3EC19F0000E366E030E356E04C101
:100DC80037F0E3EC19F0B2D093EC1AF0AC0E010155
:100DD800436FFE0E0101446FDF0E0101456FFE0EE9
:100DE8000101466FBBEC18F0FAEC1AF0CFEC19F0E1
:100DF800410E01011B19D8A499D0000E0101136FEF
:100E0800000E8DD093EC1AF0320E0001F66FFE0E34
:100E18000001F76F0AC1F8F00BC1F9F008C1FAF048
:100E280009C1FBF0B5EC07F0C00ECEEC1AF01F0EAE
:100E38000001F66FFE0E0001F76F06C1F8F007C15A
:100E4800F9F004C1FAF005C1FBF0B5EC07F0FAECD3
:100E58001AF0CFEC19F0440E01011B19D8A456D092
:100E680001010451010106250101476F01010551E6
:100E7800010107210101486F01010A5101014727BA
:100E880001010B51010148230101085101014725C6
:100E98000101026F01010951010148210101036F9C
:100EA80093EC1AF09A0E0001F66FFF0E0001F76F2F
:100EB80002C1F8F003C1F9F0B5EC07F0C00ECEECB2
:100EC8001AF0790E0001F66FFE0E0001F76F230E7F
:100ED8000001DE6F010E0001DF6F1C0E0001E06FE4
:100EE800010E0001E16FD3EC0DF0FE0E0001DE25CE
:100EF8000001F86FFF0E0001DF210001F96FB5EC6A
:100F080007F0FAEC1AF0CFEC19F00AD0430E010101
:100F18001B19D8A405D0000E0101136F010E126F22
:100F28000101125101011311D8B46CD701011651F6
:100F380001011711D8A405D0030E01011819D8B45E
:100F480043D701011851000AD8B4B8EF00F0010ADC
:100F5800D8B435D6030AD8B46DD6010AD8B48BD61E
:100F6800F0D7F80E0101386F000E0101396F0AD26F
:100F7800250E01014219D8B405D001014251C8EC2F
:100F88001AF000D2000E0101416F000E406F000EF2
:100F980001013F6F05D001013F850001F64BF72B9A
:100FA800F6C0F6FFF7C0F7FF0800F550300AD8B4CE
:100FB800F2D7F6C0F6FFF7C0F7FF0800F55075EC5A
:100FC8001AF0D8A08DD0000E0101416F000E406FBD
:100FD80040C135F041C136F0000E386E0A0E376E4A
:100FE80009EC1AF035C040F136C041F1D00E0101CC
:100FF800316FFF0E0101326FF6C0F6FFF7C0F7FF41
:101008000800F5500101336F346B010131510101C2
:101018003327010132510101342301013351010108
:10102800402701013451010141230001F64BF72B00
:10103800F6C0F6FFF7C0F7FF0800F55075EC1AF098
:10104800D8A04ED0C5D701013F8F63D001014051D0
:1010580001013A5D0101415101013B59D8B009D064
:1010680001013A510101405F01013B510101415B1E
:1010780009D0000E0101416F000E406F03D0200E11
:10108800C8EC1AF001014007D8A041070101402926
:10109800F6E101014129D8B40BD0F1D735C1D9FF08
:1010A80036C1DAFFDF50C8EC1AF00101354B362B98
:1010B80001013A07D8A03B0701013A29EFE10101F4
:1010C8003B29D8B45FD1EAD7420E0101356F010E32
:1010D8000101366F000E01013B6F010E3A6FB6D762
:1010E800F6C0F6FFF7C0F7FF0001F64BF72B080034
:1010F800F5CF42F101014251000AD8B41200640A46
:10110800D8B407D00D0AD8B404D0110AD8B49BD7E4
:10111800DBD701013FBF19D038C1D9FF39C1DAFF88
:10112800DECF3DF1DDCF3EF1020E01013827000E82
:10113800392301013EAF53D0030E01013F130101D2
:101148003D6D3E1FD8B03E2B4AD038C1D9FF39C1BA
:10115800DAFFDECF3DF1DDCF3EF1020E0101382787
:10116800000E39233CD0010E0101426F050E01012A
:101178004219D8B43DD001014251020D540EF32456
:10118800F66EFD0EF420F76E0900F55001013D5D85
:101198000900F55001013E59D8A02AD00101422B7F
:1011A800E5D7010E0101426F040E01014219D8B4BE
:1011B8001FD001014251020D5E0EF324F66EFD0EA2
:1011C800F420F76E0900F55001013D5D0900F55066
:1011D80001013E59D8A00CD00101422BE5D70101ED
:1011E8003F51800B000AD8B4BED7800AD8B4D9D7EB
:1011F8000101405101014111D8B40BD03FC131F177
:10120800030E01013117D8B404D001014007D8A05A
:101218004107800E010142BF7F0E0101316F0101BC
:1012280040510101425D01014151800A01013159DA
:10123800D8B00BD0010142510101405F000E0101FD
:1012480042BFFF0E0101415B05D0000E0101416F55
:10125800000E406F01013FA518D03FC131F1030EC8
:1012680001013117D8B403D02D0EC8EC1AF00101D2
:10127800405101014111D8B425D0300EC8EC1AF004
:1012880001014007D8A04107F2D7010140510101EF
:101298004111D8B40DD0200EC8EC1AF00101400756
:1012A800D8A041070101405101014111D8A4F3D749
:1012B8003FC131F1030E01013117D8B403D02D0E0F
:1012C800C8EC1AF042C13CF157D001013C51020D63
:1012D800540EF324F66EFD0EF420F76E0900F5CFD8
:1012E80037F00A00F5CF38F03DC135F03EC136F091
:1012F8004CEC17F035C03CF036C03DF0000E3F6EA8
:101308000A0E3E6E79EC18F03C50300F0101426F26
:101318002FD03DC135F03EC136F001013C51020DE0
:101328005E0EF324F66EFD0EF420F76E0900F5CF7D
:1013380037F00A00F5CF38F04CEC17F035500F0BAA
:101348000101376F01013751010D570EF324F66E75
:10135800FE0EF420F76E0800F5CF42F109D0010126
:101368003F51800B000AD8B4B0D7800AD8B4D1D77F
:1013780001014251C8EC1AF001013C0701013C2966
:10138800D8A4EDD7F6C0F6FFF7C0F7FF0001F64B7B
:10139800F72B0800F5CF42F101014251D8B41200F1
:1013A800E7D50F0E166E000E176EABD1250E20185E
:1013B800D8B404D02050D4EC1AF0A3D1000E1F6E7C
:1013C800000E1E6E000E1D6E03D01D840D4A0E2ADF
:1013D8000DC0F6FF0EC0F7FF0800F550300AD8B46C
:1013E800F4D70DC0F6FF0EC0F7FF0800F55084ECE7
:1013F8001AF0D8A06CD0000E1F6E000E1E6E1EC014
:1014080001F01FC002F0000E046E0A0E036E2FECEE
:101418001AF001C01EF002C01FF0D00E0F6EFF0EB2
:10142800106E0DC0F6FF0EC0F7FF0800F550116EE4
:10143800126A0F5011261050122211501E261250F7
:101448001F220D4A0E2A0DC0F6FF0EC0F7FF080036
:10145800F55084EC1AF0D8A03AD0D1D71D8E4ED0D2
:101468001E50185C1F501958D8B005D018501E5E71
:1014780019501F5A08D0000E1F6E000E1E6E03D0A2
:10148800200ED4EC1AF01E06D8A01F061E28F8E17C
:101498001F28D8B40AD0F4D713C0D9FF14C0DAFF74
:1014A800DF50D4EC1AF0134A142A1806D8A01906EB
:1014B8001828F2E11928D8B424D1EED7200E136EDB
:1014C800000E146E000E196E010E186EC9D70DC0ED
:1014D800F6FF0EC0F7FF0D4A0E2A0800F5CF20F0E0
:1014E8002050000AD8B41200640AD8B407D00D0AF4
:1014F800D8B404D0110AD8B4B1D7E0D71DBE15D0DE
:1015080016C0D9FF17C0DAFFDECF1BF0DDCF1CF005
:10151800020E1626000E17221CAE44D0030E1D1212
:101528001B6C1C1ED8B01C2A3DD016C0D9FF17C092
:10153800DAFFDECF1BF0DDCF1CF0020E1626000E00
:10154800172230D0010E206E050E2018D8B432D0E4
:101558002050020D540EF324F66EFD0EF420F76EA3
:101568000900F5501B5C0900F5501C58D8A022D082
:10157800202AEAD7010E206E040E2018D8B41AD0FB
:101588002050020D5E0EF324F66EFD0EF420F76E69
:101598000900F5501B5C0900F5501C58D8A00AD06A
:1015A800202AEAD71D50800B000AD8B4CBD7800A6E
:1015B800D8B4E0D71E501F10D8B409D01DC00FF002
:1015C800030E0F16D8B403D01E06D8A01F06800E2F
:1015D80020BE7F0E0F6E1E50205C1F50800A0F58D1
:1015E800D8B007D020501E5E000E20BEFF0E1F5A36
:1015F80004D0000E1F6E000E1E6E1DA414D01DC058
:101608000FF0030E0F16D8B403D02D0ED4EC1AF039
:101618001E501F10D8B41ED0300ED4EC1AF01E067F
:10162800D8A01F06F5D71E501F10D8B40AD0200E18
:10163800D4EC1AF01E06D8A01F061E501F10D8A4FE
:10164800F6D71DC00FF0030E0F16D8B403D02D0E19
:10165800D4EC1AF020C01AF050D01A50020D540ED3
:10166800F324F66EFD0EF420F76E0900F5CF03F0B3
:101678000A00F5CF04F01BC001F01CC002F075ECA5
:1016880017F001C008F002C009F0000E0B6E0A0E38
:101698000A6E9AEC18F00850300F206E2BD01BC041
:1016A80001F01CC002F01A50020D5E0EF324F66E13
:1016B800FD0EF420F76E0900F5CF03F00A00F5CF10
:1016C80004F075EC17F001500F0B156E1550010D55
:1016D800570EF324F66EFE0EF420F76E0800F5CFD1
:1016E80020F008D01D50800B000AD8B4B6D7800A65
:1016F800D8B4D5D72050D4EC1AF01A061A28D8A492
:10170800F1D70DC0F6FF0EC0F7FF0D4A0E2A0800EC
:10171800F5CF20F02050D8B4120048D68BC08FF0F7
:101728000001906B916B00018A3500018F3701E34E
:10173800908100018F510001946F8EC08FF00001DD
:10174800906B916B00018D3500018F3701E390811B
:1017580000018F510001936F000194510001D8B42A
:1017680011D0000193510001945DD8B012D000014E
:10177800945100080001932500018F6F180E000195
:101788008F6507D08CC089F08DC08AF08EC08BF031
:101798001200000193510001D8B411D000019451F6
:1017A8000001935DD8B012D00001935100080001E8
:1017B800942500018F6F180E00018F6507D089C02E
:1017C80089F08AC08AF08BC08BF01200060E0001E7
:1017D800926F00018BAF02D00001928F00018EAF93
:1017E80002D00001928D00018A8FFF0E0001891737
:1017F800FF0E00018A17000E00018B1700018D8F64
:10180800FF0E00018C17FF0E00018D17000E00015E
:101818008E17000193510001945DD8B025D00001C6
:10182800D8908C378D378E3700019307000194517B
:1018380000019319D8B411D00001920792C08FF01B
:10184800070E00018F17D8B408D0E9D70001D89047
:101858008B338A3389330001942B000193510001A3
:101868009419D8B42BD0F2D7000194510001935D9C
:10187800D8B024D00001D89089378A378B37000137
:1018880094070001945100019319D8B411D00001B4
:10189800920792C08FF0070E00018F17D8B408D0B6
:1018A800E9D70001D8908E338D338C330001932B08
:1018B8000001935100019419D8A4F3D7000192AF05
:1018C80012D0FF0E0001891BFF0E00018A1BFF0EBC
:1018D80000018B1B010E00018927000E00018A23DD
:1018E800000E00018B23000192AD12D0FF0E000103
:1018F8008C1BFF0E00018D1BFF0E00018E1B010EBD
:1019080000018C27000E00018D23000E00018E239C
:10191800000E0001926F0001895100018C2700011F
:101928008A5100018D2300018B5100018E23000193
:101938008EAF15D0FF0E00018C1BFF0E00018D1B12
:10194800FF0E00018E1B010E00018C27000E000106
:101958008D23000E00018E23010E0001926F8CC0B2
:1019680035F08DC036F08EC037F094C038F092C094
:1019780039F0C9EC14F035C089F036C08AF037C0A8
:101988008BF012000001B4510001B5110001B6112D
:10199800D8A40AD0000E0001B46F800E0001B56F04
:1019A8003F0E0001B66F1200720E356E310E366EA4
:1019B800440E376EB4C038F0B5C039F0B6C03AF04E
:1019C800B3EC15F0D8B00ED0000E4A6E220E496E58
:1019D800FF0E0001B46F7F0E0001B56F7F0E00018E
:1019E800B66F1200B4C035F0B5C036F0B6C037F0E7
:1019F800490E386E3A0E396EC40E3A6EB3EC15F0D5
:101A0800D8B00ED0000E4A6E220E496E000E0001AC
:101A1800B46F000E0001B56F000E0001B66F120022
:101A28000001B6AF02D0010E01D0000E0001BC6F5C
:101A38000001BC510001D8B40ED0B4C035F0B5C017
:101A480036F0B6C037F042EC1AF035C0B4F036C004
:101A5800B5F037C0B6F0B4C041F0B5C042F0B6C07A
:101A680043F0AA0E446EB80E456E3F0E466ECCEC9F
:101A780010F041C0B4F042C0B5F043C0B6F0B4C0F5
:101A8800ACF0B5C0ADF0B6C0AEF0F7EC12F0ACC03B
:101A9800B7F0ADC0B8F0AEC0B9F0B7C095F0B8C0F7
:101AA80096F0B9C097F08CEC0FF095C0BAF096C0DC
:101AB800BBF0B4C095F0B5C096F0B6C097F0BAC008
:101AC8003DF0BBC03EF0B3EC19F03DC098F03EC00D
:101AD80099F03FC09AF0ECEC17F095C0B4F096C0BE
:101AE800B5F097C0B6F0B4C095F0B5C096F0B6C0E2
:101AF80097F06D0E0001986FFD0E0001996F000EB2
:101B080000019B6F090E9A6F5DEC14F095C09FF071
:101B180096C0A0F097C0A1F0BAC0A2F0BBC0A3F0D5
:101B280062EC11F09FC0B4F0A0C0B5F0A1C0B6F04F
:101B38000001BC510001D8B42BD00001B42913E135
:101B48007F0E0001B5190FE17F0E0001B619D8A468
:101B58000AD0000E0001B46F000E0001B56F000E30
:101B68000001B66F1200000E3D6E800E3E6E3F0EF5
:101B78003F6EB4C040F0B5C041F0B6C042F075EC5D
:101B880012F03DC0B4F03EC0B5F03FC0B6F0120050
:101B9800B4C0B4F0B5C0B5F0B6C0B6F012000001DC
:101BA80020EE02F0DE51D926DF51DA22DF500001A3
:101BB800E26F0001E2510001E46FE56B000120EEE5
:101BC80002F0E051D926E151DA22DF500001E26F3C
:101BD8000001E2510001E66FE76B000120EE01F021
:101BE800DE51D926DF51DA22DF500001E26F000111
:101BF800E2510001E86FE96B000120EE01F0E051CD
:101C0800D926E151DA22DF500001E26F0001E251EA
:101C18000001EA6FEB6BDEC0D9FFDFC0DAFFDF50EF
:101C28000001E26F0001E2510001EC6FED6BE0C0D2
:101C3800D9FFE1C0DAFFDF500001E26F0001E25195
:101C48000001EE6FEF6BE6C0CEF0E7C0CFF0ECEC32
:101C580011F0CEC0E2F0CFC0E3F0E4C0CEF0E5C0B2
:101C6800CFF0ECEC11F00001CE1F0001CF1F0001F6
:101C7800CE4BCF2B0001CE510001E2250001F06FC1
:101C88000001CF510001E3210001F16FEAC0CEF05D
:101C9800EBC0CFF0ECEC11F0CEC0E2F0CFC0E3F037
:101CA800E8C0CEF0E9C0CFF0ECEC11F00001CE1F97
:101CB8000001CF1F0001CE4BCF2B0001CE510001F8
:101CC800E2250001F26F0001CF510001E32100017C
:101CD800F36FEEC0CEF0EFC0CFF0ECEC11F0CEC059
:101CE800E2F0CFC0E3F0ECC0CEF0EDC0CFF0ECEC0A
:101CF80011F00001CE1F0001CF1F0001CE4BCF2BEA
:101D08000001CE510001E2250001F46F0001CF511E
:101D18000001E3210001F56FF0C035F0F1C036F0A5
:101D28000E0E386E100E376E09EC1AF035C0E2F060
:101D380036C0E3F0F2C035F0F3C036F0000E386E6E
:101D48003C0E376E09EC1AF035500001E227365088
:101D58000001E3230001F4510001E2250001DE6FD8
:101D68000001F5510001E3210001DF6F1200000EB0
:101D78000001C96F0001BD510001BE110001BF1172
:101D8800D8A41ED0000E356E000E366E000E376ECB
:101D9800C0C038F0C1C039F0C2C03AF0B3EC15F099
:101DA800D8A004D0000E4A6E210E496E000E000124
:101DB800BD6F000E0001BE6F000E0001BF6F120064
:101DC8000001C0510001C1110001C211D8A40AD0FC
:101DD800000E0001BD6F800E0001BE6F3F0E0001B6
:101DE800BF6F12000001BFAF48D0C0C095F0C1C09E
:101DF80096F0C2C097F08CEC0FF095C0CAF096C070
:101E0800CBF097C0CCF098C0CDF0CAC03DF0CBC0A5
:101E18003EF0CCC03FF0CDC040F0F0EC16F0000131
:101E2800C0513D1809E10001C1513E1805E100010A
:101E3800C2513F18D8B40ED0000E4A6E210E496E1A
:101E4800000E0001BD6F000E0001BE6F000E000104
:101E5800BF6F12000001CA51010B0001C96FBDC05C
:101E680035F0BEC036F0BFC037F042EC1AF035C0CE
:101E7800BDF036C0BEF037C0BFF0BDC09FF0BEC0D9
:101E8800A0F0BFC0A1F02EEC10F09FC0C3F0A0C01E
:101E9800C4F0A1C0C5F0C3C041F0C4C042F0C5C081
:101EA80043F0C0C044F0C1C045F0C2C046F0CCEC1D
:101EB80010F041C0C6F042C0C7F043C0C8F0C6C069
:101EC800B4F0C7C0B5F0C8C0B6F0C6EC0CF0B4C0EA
:101ED800BDF0B5C0BEF0B6C0BFF00001C9510001E9
:101EE800D8B40FD0BDC035F0BEC036F0BFC037F093
:101EF80042EC1AF035C0BDF036C0BEF037C0BFF0B6
:101F08001200BDC0BDF0BEC0BEF0BFC0BFF0120021
:101F180097C099F000019A6B9B6B00019635000100
:101F2800993701E39A81000199510001A36F0001DB
:101F3800A351D8A40AD0000E0001956F000E966F29
:101F4800000E976F000E986F1200170E0001996F20
:101F580095C09AF096C09BF097C09CF00001992913
:101F680000019D6F05D00001D8909C339B339A33B4
:101F780000019D2FF8D700019A5100019E6F0001C2
:101F8800968FFF0E00019517FF0E00019617000EA1
:101F9800000197170001955100019F6F00019651AC
:101FA8000001A06F000197510001A16F0001A26B11
:101FB8008E0E0001A35F0001A3AF1AD00001A35148
:101FC800800A8F0FD8B00AD0000E0001956F000E5E
:101FD800966F000E976F000E986F12000001D89050
:101FE800A233A133A0339F330001A33FF7D71BD0FF
:101FF800170E0001A36512D0000E0001956F000EA8
:10200800966F000E976F000E986F12000001D8901F
:102018009F37A037A137A2370001A3070001A351BA
:102028000001D8A4F3D700019E510001D8B409D00B
:102038000001A21FA11FA01F9F6D000EA023A123B6
:10204800A2239FC095F0A0C096F0A1C097F0A2C0AF
:1020580098F012000001A1AF0ED0000E4A6E210EBA
:10206800496E000E00019F6F000E0001A06F000E68
:102078000001A16F120000019F510001A011000191
:10208800A111D8A40ED0000E4A6E220E496E000E81
:1020980000019F6F000E0001A06F000E0001A16FEC
:1020A8001200000E446E000E456E400E466EA20EE3
:1020B800386E000E396E9FC035F0A0C036F0A1C052
:1020C80037F06BEC15F035C041F036C042F037C040
:1020D80043F0CCEC10F041C089F042C08AF043C014
:1020E8008BF0000E00018C6F800E00018D6FBF0E0B
:1020F80000018E6F92EC0BF089C09FF08AC0A0F0AF
:102108008BC0A1F00001A207D8A0A3079FC095F03B
:10211800A0C096F0A1C097F08B0E0001986FFD0E3D
:102128000001996F000E00019B6F080E9A6F5DEC1D
:1021380014F095C09FF096C0A0F097C0A1F0720E61
:10214800446E310E456E3F0E466EA2C03DF0A3C0F0
:102158003EF0B3EC19F03DC041F03EC042F03FC044
:1021680043F0CCEC10F041C089F042C08AF043C083
:102178008BF09FC08CF0A0C08DF0A1C08EF092ECC7
:102188000BF089C09FF08AC0A0F08BC0A1F01200AC
:1021980043C080F00001816B826B423400018037BC
:1021A80001E38181000180510001836F00018351A7
:1021B800D8A407D0000E416E000E426E000E436E8A
:1021C800120046C080F00001816B826B453400012B
:1021D800803701E38181000180510001886F00018F
:1021E8008851D8A407D0000E416E000E426E000E32
:1021F800436E1200000188517B0F0001832743C002
:1022080088F046500001881B800E00018817428E16
:10221800458EFF0E4416FF0E4516000E4616000E9C
:102228000001846F000E0001856F000E0001866FAB
:10223800070E0001876F41A009D044500001842790
:10224800455000018523465000018623D89043322B
:1022580042324132D8904436453646360001872FFF
:10226800EAD7090E0001876F41A009D04450000148
:102278008427455000018523465000018623D890C5
:102288004332423241320001D89086338533843359
:102298000001872FE9D784C035F085C036F086C0A5
:1022A80037F083C038F088C039F0C9EC14F035C075
:1022B80041F036C042F037C043F0120000019F5190
:1022C8000001A0110001A111D8A40AD0000E00013C
:1022D8009F6F000E0001A06F000E0001A16F120099
:1022E8000001A1517F0B0001A46FA56BD8900001DC
:1022F800A437A5370001A4510001A2270001A55168
:102308000001A3230001A0AF04D00001A46BA42BFB
:1023180002D00001A46B0001A4510001A227000E05
:10232800A3230001A3AF0ED0000E4A6E220E496E01
:10233800000E00019F6F000E0001A06F000E00014B
:10234800A16F12000001A3BF1BD00001A305D8A0F4
:1023580017D0000E4A6E220E496E0001A1AF08D0B8
:10236800FF0E00019F6F7F0E0001A06FFF0EE7D7E1
:10237800FF0E00019F6F7F0E0001A06F7F0EDFD759
:102388000001A335A3310001A56F0001A2310001AE
:10239800A46F0001A1510001A419800BA419000128
:1023A800A16FA2C0A4F0010E0001A4170001A4337C
:1023B800A4330001A0510001A4197F0BA419000146
:1023C800A06F9FC09FF0A0C0A0F0A1C0A1F0120014
:1023D800000E0001D96F000ED86FCEC0DCF0CFC060
:1023E800DDF0000E0001DB6F000EDA6F6FD00F0E0C
:1023F8000001DC150001D66F0001D76BD8C03DF095
:10240800D9C03EF0B3EC19F03DC0D0F03EC0D1F0D9
:102418003FC0D2F0D0C0C0F0D1C0C1F0D2C0C2F02D
:10242800000E0001BD6F200E0001BE6F410E0001BD
:10243800BF6FBBEC0EF0BDC0D3F0BEC0D4F0BFC0C0
:10244800D5F0D3C044F0D4C045F0D5C046F0D6C0CE
:102458003DF0D7C03EF0B3EC19F03DC041F03EC0AE
:1024680042F03FC043F0CCEC10F041C08CF042C0C9
:102478008DF043C08EF0DAC03DF0DBC03EF0B3EC27
:1024880019F03DC089F03EC08AF03FC08BF092EC55
:102498000BF089C095F08AC096F08BC097F08CEC51
:1024A8000FF095C0DAF096C0DBF0DCC035F0DDC087
:1024B80036F0000E386E100E376EFBEC15F035C096
:1024C800DCF036C0DDF00001D84BD92B0001DC511F
:1024D8000001DD11D8A48BD7DAC0CEF0DBC0CFF075
:1024E80012003FC043F0446A456A3E34433601E374
:1024F800448043500001846F00018451D8A407D060
:10250800000E3D6E000E3E6E000E3F6E120042C081
:1025180043F0446A456A4134433601E344804350FA
:102528000001856F00018551D8A407D0000E3D6ECB
:10253800000E3E6E000E3F6E1200000E0001816F0D
:10254800000E0001826F000E0001836F00018551AB
:10255800890F0001845F3FC085F042500001851B50
:10256800800E000185173E8EFF0E3D16FF0E3E16AB
:10257800000E3F16418EFF0E4016FF0E4116000E4C
:102588004216180E0001806F0001D89081378237FB
:10259800833740503D5C41503E5842503F58D8A088
:1025A80008D040503D5E41503E5A42503F5A0001CB
:1025B8008181D8903D363E363F360001802FE4D7E2
:1025C80081C035F082C036F083C037F084C038F05F
:1025D80085C039F0C9EC14F035C03DF036C03EF086
:1025E80037C03FF01200ACC035F0ADC036F0AEC019
:1025F80037F0B20E386E000E396E6BEC15F0000134
:10260800B3AF17D00001AEAF0AD0000E0001AC6F17
:10261800800E0001AD6FBF0E0001AE6F1200000EFC
:102628000001AC6F000E0001AD6F000E0001AE6F2F
:1026380012000001B35105E1150E0001B25DD8A0EA
:1026480007D0ACC0ACF0ADC0ADF0AEC0AEF012007B
:10265800ACC095F0ADC096F0AEC097F08CEC0FF022
:1026680095C0A4F096C0A5F097C0A6F098C0A7F0B2
:1026780020EC15F0A4C0AFF0A5C0B0F0A6C0B1F032
:10268800ACC035F0ADC036F0AEC037F0AFC038F0F2
:10269800B0C039F0B1C03AF0B3EC15F0D8B018D0EA
:1026A800AFC089F0B0C08AF0B1C08BF0000E000155
:1026B8008C6F800E00018D6FBF0E00018E6F92EC43
:1026C8000BF089C0ACF08AC0ADF08BC0AEF0120040
:1026D800AFC0ACF0B0C0ADF0B1C0AEF012000600B3
:1026E800FACF27F0FBCF28F0E9CF29F0EACF2AF07C
:1026F800E1CF2BF0E2CF2CF0D9CF2DF0DACF2EF0AE
:10270800F3CF2FF0F4CF30F0F6CF31F0F7CF32F02F
:10271800F8CF33F0F5CF34F0F0B026D039D01C0E16
:10272800046E010E056EB7EC16F0829E818076EC81
:1027380019F057EC19F09FEC1AF0BD0E216EFE0E41
:10274800226E9B0E236EFE0E246E95EC19F0000E81
:10275800026E010E016E57EC18F08080030E01D056
:10276800000E0101186F13D081380F0B0F0B256E67
:10277800266A430E2524F66EFD0E2620F76E080005
:10278800F550230AD8B4CBD7610AD8B4E9D7F0906A
:1027980034C0F5FF33C0F8FF32C0F7FF31C0F6FF91
:1027A80030C0F4FF2FC0F3FF2EC0DAFF2DC0D9FFD1
:1027B8002CC0E2FF2BC0E1FF2AC0EAFF29C0E9FFD5
:1027C80028C0FBFF27C0FAFF4B921100FEC038F06B
:1027D800FFC039F07EEC16F0F29EBD0E0001F66FD8
:1027E800FD0E0001F76F000120EE06F0FE51D9261C
:1027F800FF51DA22DF500101436F0101435100010B
:10280800F86FF96B000120EE05F0FE51D926FF5153
:10281800DA22DF500101446F010144510001FA6FCF
:10282800FB6B000120EE04F0FE51D926FF51DA229D
:10283800DF500101456F010145510001FC6FFD6B3F
:10284800B5EC07F0C00ECEEC1AF0A60E0001F66F3C
:10285800FD0E0001F76F000120EE02F0FE51D926AF
:10286800FF51DA22DF500101436F0101435100019A
:10287800F86FF96B000120EE01F0FE51D926FF51E7
:10288800DA22DF500101446F010144510001FA6F5F
:10289800FB6BFEC0D9FFFFC0DAFFDF500101456FB7
:1028A800010145510001FC6FFD6BB5EC07F0F28E9C
:1028B80012009AC035F09BC036F0000E386E030E39
:1028C800376E09EC1AF098C047F099C048F03550B7
:1028D80047263650482247C0F6FF48C0F7FF090090
:1028E800F5CF9CF00900F5CF9DF00A00F5CF9EF0DA
:1028F8003FD09CC044F09DC045F09EC046F095C0B6
:1029080041F096C042F097C043F0CCEC10F041C0C3
:1029180089F042C08AF043C08BF0000E386E030E77
:10292800376E00019A07D8A09B079AC035F09BC064
:1029380036F009EC1AF098C047F099C048F03550C5
:1029480047263650482247C0F6FF48C0F7FF09001F
:10295800F5CF8CF00900F5CF8DF00A00F5CF8EF099
:1029680092EC0BF089C09CF08AC09DF08BC09EF061
:1029780000019A5100019B11D8A4BBD79CC095F0C7
:102988009DC096F09EC097F012003850D8B405D07C
:10299800355036103710D8A40CD0000E356E000E06
:1029A800366E000E376E1200382AD890373236321B
:1029B8003532000E35143A6E000E36143B6EFE0E9C
:1029C80037143C6E3A503B103C10D8B40CD0ECD7BE
:1029D800382A010E3526000E3622000E3722D890EE
:1029E800373236323532000E35143A6E000E361450
:1029F8003B6EFF0E37143C6E3A503B103C10D8B477
:102A080006D0E6D73806D89035363636373636BE4D
:102A180003D0020E3860F6D738A0369ED8903832E8
:102A2800385037123950D8A4378E35C035F036C0F3
:102A380036F037C037F01200000E486E8E0E476E23
:102A48000001A7AF13D00001A71FA61FA51FA46DE3
:102A5800000EA523A623A723010E486E07D0000168
:102A6800D890A733A633A533A433472A000E000114
:102A7800A4150001A86F000E0001A5150001A96F9B
:102A8800000E0001A6150001AA6FFF0E0001A71590
:102A98000001AB6F0001A8510001A9110001AA11A2
:102AA8000001AB11D8A4DBD7A4C035F0A5C036F01F
:102AB800A6C037F047C038F048C039F0C9EC14F068
:102AC80035C0A4F036C0A5F037C0A6F012003550C6
:102AD80036103710D8A40FD038C0D9FF39C0DAFF64
:102AE800000EDE6E000EDD6E000E356E000E366EC8
:102AF800000E376E120037507F0B3A6E3B6AD89043
:102B08003A363B3638C0D9FF39C0DAFF3AC0DEFF63
:102B18003BC0DDFF36AE03D03A6A3A2A01D03A6AA2
:102B28003A5038C0D9FF39C0DAFFDE12000EDD1284
:102B380038C0D9FF39C0DAFF820EDE26FF0EDD224B
:102B480037803782378437863788378A379C369E6E
:102B580035C035F036C036F037C037F0120037AE22
:102B680016D035C03BF036C03CF037C03DF03B1EB8
:102B78003C1E3D1E3B2A000E3C223D22000E3B24FB
:102B8800356E000E3C20366E800E3D20376E3AAE14
:102B980016D038C03BF039C03CF03AC03DF03B1E7F
:102BA8003C1E3D1E3B2A000E3C223D22000E3B24CB
:102BB800386E000E3C20396E800E3D203A6E000EB5
:102BC800351A000E361A800E371A000E381A000E03
:102BD800391A800E3A1A3850355C395036583A50FE
:102BE8003758D8B002D0D8901200D8801200000E02
:102BF8003A6E38AE06D0376C381ED8B0382A010E77
:102C08003A6E36AE06D0356C361ED8B0362A010E6E
:102C18003A1A000E3C6E000E3B6E37503810D8B48E
:102C28001CD0010E396E04D0D89037363836392A80
:102C380038AEFAD7D8903B363C363750355C3850EA
:102C48003658D8A005D03750355E3850365A3B80B4
:102C5800D89038323732392EEDD73A50D8B404D01C
:102C68003B6C3C1ED8B03C2A3BC035F03CC036F02B
:102C78001200000E3D6E000E3E6E000E3F6E000EFE
:102C8800406E39503A103B103C10D8B42AD0010E8F
:102C9800416E06D0D89039363A363B363C36412A12
:102CA8003CAEF8D7D8903D363E363F3640363950A0
:102CB800355C3A5036583B5037583C503858D8A0B5
:102CC80009D03950355E3A50365A3B50375A3C5045
:102CD800385A3D80D8903C323B323A323932412E14
:102CE800E1D73DC035F03EC036F03FC037F040C0B8
:102CF80038F01200EEEC1AF0000E376ED00E366E79
:102D0800E0EC1AF0000E376E000E366EE0EC1AF0AA
:102D1800EAEC1AF0EEEC1AF0000E376ED10E366EB1
:102D2800E0EC1AF0000E3A6E050E3A6401D00ED0AF
:102D38003A50010DF3503824D96EF4503920DA6E28
:102D4800010EF6EC19F0DF6E3A2AEED720EE06F007
:102D58003850D9263950DA22000EF6EC19F0DF6E19
:102D6800EAEC1AF01200F6EC1AF0000E036ED00E20
:102D7800026EE5EC1AF0000E036E000E026EE5EC32
:102D88001AF0F2EC1AF0F6EC1AF0000E036ED10EFF
:102D9800026EE5EC1AF0000E066E050E066401D010
:102DA8000ED00650010DF3500424D96EF4500520BE
:102DB800DA6E010E1CEC1AF0DF6E062AEED720EE52
:102DC80006F00450D9260550DA22000E1CEC1AF041
:102DD800DF6EF2EC1AF012008E0E456E06D0D89017
:102DE80040323F323E323D32452A000E3D14416E9C
:102DF800000E3E14426E000E3F14436EFF0E401448
:102E0800446E4150421043104410D8A4E8D73DC046
:102E180035F03EC036F03FC037F045C038F0000E00
:102E2800396EC9EC14F035C03DF036C03EF037C0FD
:102E38003FF01200000EC76E280EC66E000EC56E5B
:102E4800000E356E120E366E7A0E376E000E386E24
:102E580042C080F043C081F044C082F045C083F096
:102E6800020ED89000018037813782378337E82EE9
:102E7800F8D780C039F081C03AF082C03BF083C0F7
:102E88003CF03DEC16F03504C86E94869488120028
:102E9800000E3A6E000E396E37503810D8B41CD078
:102EA800010E3B6E04D0D890373638363B2A38AE00
:102EB800FAD7D89039363A363750355C38503658C4
:102EC800D8A005D03750355E3850365A3980D8905A
:102ED800383237323B2EEDD739C035F03AC036F0AC
:102EE8001200000E066E000E056E03500410D8B4D2
:102EF8001CD0010E076E04D0D89003360436072A7A
:102F080004AEFAD7D890053606360350015C045053
:102F18000258D8A005D00350015E0450025A05801B
:102F2800D89004320332072EEDD705C001F006C051
:102F380002F01200366E3650F00B356E8C500F0BC7
:102F48008C6E35508C108C6E8C96140EE82EFED735
:102F58008C86140EE82EFED73638F00B366E3650B7
:102F6800F00B356E8C500F0B8C6E35508C108C6EB0
:102F78008C96140EE82EFED78C86140EE82EFED7FB
:102F88001200026E0250F00B016E8C500F0B8C6E0B
:102F980001508C108C6E8C96140EE82EFED78C8601
:102FA800140EE82EFED70238F00B026E0250F00B1A
:102FB800016E8C500F0B8C6E01508C108C6E8C96A1
:102FC800140EE82EFED78C86140EE82EFED71200BB
:102FD800000198510001991100019A11D8B409D043
:102FE800000E0001981B000E0001991B800E0001C5
:102FF8009A1B95C089F096C08AF097C08BF098C04C
:103008008CF099C08DF09AC08EF092EC0BF089C0CC
:1030180095F08AC096F08BC097F01200270E386E94
:10302800F50EE82EFED7382EFCD700F0330ECEEC86
:103038001AF0320ECEEC1AF0280ECEEC1AF00F0E63
:10304800CEEC1AF0060ECEEC1AF0010ECEEC1AF009
:10305800270E386EF50EE82EFED7382EFCD700F076
:103068001200000E396E000E386E12D0000E3A6E45
:10307800630E3A6401D00AD01A0E376EF80EE82EA5
:10308800FED7372EFCD700D03A2AF2D7384A392A49
:103098003850355C3650800A376E3950800A3758B8
:1030A800D8A01200E3D7000E056E000E046E12D0F1
:1030B800000E066E630E066401D00AD01A0E036E67
:1030C800F80EE82EFED7032EFCD700D0062AF2D73A
:1030D800044A052A0450015C0250800A036E055018
:1030E800800A0358D8A01200E3D73E503F10D8B446
:1030F80018D0010E406E04D0D8903E363F36402A94
:103108003FAEFAD73E503C5C3F503D58D8A004D063
:103118003E503C5E3F503D5AD8903F323E32402EA2
:10312800F1D73CC03CF03DC03DF012000A500B10F6
:10313800D8B418D0010E0C6E04D0D8900A360B36CD
:103148000C2A0BAEFAD70A50085C0B500958D8A0C5
:1031580004D00A50085E0B50095AD8900B320A3234
:103168000C2EF1D708C008F009C009F01200560E5D
:10317800010145190CE1FE0E01014619D8A407D03A
:1031880043C1F6F044C1F7F0B5EC07F0120043C1B3
:10319800F6F044C1F7F0B5EC07F0C00ECEEC1AF02B
:1031A80045C1F6F046C1F7F0B5EC07F01200000E85
:1031B800376E000E366E375018E1320E365CD8B0D6
:1031C8001200808A040E356E1C0EE82EFED7352EAE
:1031D800FCD700D0809A310E356ED40EE82EFED77B
:1031E800352EFCD7364A372AE6D71200000E376E3E
:1031F800000E366E375018E1320E365CD8B0120029
:10320800828A040E356E3E0EE82EFED7352EFCD788
:10321800829A310E356EB20EE82EFED7352EFCD7C7
:1032280000D0364A372AE6D71200000E376E000E55
:10323800366E375018E1320E365CD8B01200808AEC
:10324800080E356E020EE82EFED7352EFCD7809A72
:103258002D0E356EEE0EE82EFED7352EFCD700D09B
:10326800364A372AE6D71200000E376E000E366E41
:10327800375018E1320E365CD8B01200828A080E38
:10328800356E020EE82EFED7352EFCD7829A2D0E0B
:10329800356EEE0EE82EFED7352EFCD700D0364A16
:1032A800372AE6D71200000E036E000E026E035096
:1032B80018E1320E025CD8B01200808A040E016E4A
:1032C8001C0EE82EFED7012EFCD700D0809A310EB6
:1032D800016ED40EE82EFED7012EFCD7024A032A2F
:1032E800E6D71200000E036E000E026E035018E1BE
:1032F800320E025CD8B01200828A080E016E020EED
:10330800E82EFED7012EFCD7829A2D0E016EEE0E06
:10331800E82EFED7012EFCD700D0024A032AE6D7B2
:103328001200560E23180BE1FE0E2418D8A407D05D
:1033380021C00DF022C00EF0D5EC09F0120021C01A
:103348000DF022C00EF0D5EC09F0C00EDAEC1AF040
:1033580023C00DF024C00EF0D5EC09F01200000EC9
:10336800406E3EAE06D03D6C3E1ED8B03E2A010EE1
:10337800406E3DC035F03EC036F0376A8E0E386E6E
:1033880040C039F0C9EC14F035C03DF036C03EF00D
:1033980037C03FF012000ED081380F0B0F0B356E7F
:1033A800366A430E3524F66EFD0E3620F76E080099
:1033B800F5CF1BF181B2F0D700F000F012003650C3
:1033C800AA6E35C0A9FF37C0A8FFA69EA69CA684F2
:1033D800550EA76EAA0EA76EA682A1A8FED7A19821
:1033E800A6941200366EB6EC1AF0C586B6EC1AF042
:1033F800C9CF37F0B6EC1AF03650D8A402D0C58A37
:1034080001D0C59AC5883750120035503702F3CF1E
:1034180039F0F4CF3AF035503802F3503A263650A6
:103428003702F3503A2639C035F03AC036F0120068
:10343800026EBFEC1AF0C586BFEC1AF0C9CF03F0D4
:10344800BFEC1AF00250D8A402D0C58A01D0C59AA0
:10345800C5880350120001500302F3CF05F0F4CFE2
:1034680006F001500402F350062602500302F350FE
:10347800062605C001F006C002F0120035503610CD
:103488003710D8B406D0000E351A000E361A800E42
:10349800371A35C035F036C036F037C037F012006D
:1034A800366E3644E846FC0BC26EC280C28207D034
:1034B8000D0E356EFC0EE82EFED7352EFCD7C2A2B7
:1034C8001200F6D701EE00F0310EEE6AE806FDE1D3
:1034D8004A6A496A4B904B92000EF86E000109EF58
:1034E80000F0376E000E366E3A0E376005D02F0E9C
:1034F800376402D0010E366E36C035F03530120012
:10350800036E000E026E3A0E036005D02F0E0364A0
:1035180002D0010E026E02C001F001301200010E4D
:10352800CEEC1AF0060E386E300EE82EFED7382E86
:10353800FCD700D01200010EDAEC1AF0060E046E69
:10354800300EE82EFED7042EFCD700D012003650DD
:10355800AA6E35C0A9FFA69EA69CA680A6B0FED7D7
:10356800A8501200C7B4FED7C5CF35F01F0E3516C8
:10357800D8B41200F7D7C7B4FED7C5CF01F01F0ED5
:103588000116D8B41200F7D7376E8C8437509EECEA
:1035980017F01200376E8C9437509EEC17F012001B
:1035A800036E8C840350C5EC17F01200036E8C94E4
:1035B8000350C5EC17F01200B6EC1AF036C0C9FF7C
:1035C8001200BFEC1AF002C0C9FF1200B6EC1AF0E4
:1035D800C5841200B6EC1AF0C5801200BFEC1AF0D0
:1035E800C5841200BFEC1AF0C580120081B2120027
:0235F800FDD7FD
:10FD4200003132334134353642373839432A302391
:10FD5200440001000A006400E803102701001000BB
:10FD6200000100100047000211041700803F7231A9
:10FD72003FFE753E58633D951D3CC5AE3A7921392B
:10FD820094803793A73556153400000000803FF069
:10FD9200FFBEE2A93E8376BEAE2B3E3CC3BDD2136C
:10FDA2003D78D3BB253032783A253032783A253047
:10FDB2003278205072657373203000253032782FEC
:10FDC200253032782F25303278204D454E553A0075
:10FDD200333A204372656469747320202020202006
:10FDE20020202000536F7274696E672E2E2E202001
:10FDF200202020202020005072657373202320745D
:10FE02006F2053544F502020200045534B20413A3D
:10FE120020256920423A2025692020200045534BA5
:10FE220020413A20256920423A2025697C443E003F
:10FE3200594F5020413A20256920423A2025697CB9
:10FE42003C4300373A2052756E2034202020202077
:10FE520020202020003031323334353637383961B2
:10FE62006263646566004D2E2049736C616D2020CB
:10FE72002020202020200054696D653A20256973D6
:10FE82002020202020202000202020686173206272
:10FE92006567756E21202020002020207465726D18
:10FEA200696E61746564202020002020436F6C6CB1
:10FEB200656374204C6F673F202000204F7065728D
:10FEC2006174696F6E20686173202000436F7079DE
:10FED200726967687428432932303137003C204206
:10FEE20020486F6D657C5965732041203E004A2E83
:10FEF20020516975202020202020207C443E005281
:10FF02002E204A6F73652020202020207C443E0052
:10FF1200353A2052756E203220202020207C443E2B
:10FF220000313A2050617374204C6F6773207C4417
:10FF32003E0056657273696F6E3A2076312E307CC0
:10FF4200443E0045636F536F7274202020202020AE
:10FF52007C3C4300343A2052756E20312020202010
:10FF6200207C3C4300363A2052756E2033202020FC
:10FF720020207C3C43002A3A205374617274202072
:10FF82002020207C3C4300323A2041626F7574206D
:10FF9200202020207C3C4300546F74616C3A202561
:10FFA20069202020207C3C43004D656368616E69B6
:10FFB20063733A2020207C3C430043697263756975
:10FFC2007472793A2020207C3C4300496E6E6F7631
:10FFD20061546563682020207C3C430050726F6747
:10FFE20072616D6D696E673A207C3C43002020206F
:0EFFF20020536F7274696E672020202000007B
:020000040020DA
:08000000FFFFFFFFFFFFFFFF00
:020000040030CA
:0E000000FF021F1EFF8381FF0FC00FE00F40A5
:00000001FF
